:1000000003C1000032C1000030C100002EC1000059
:100010002CC100002AC1000028C1000026C1000038
:1000200024C1000022C1000020C100001EC1000048
:100030001CC100001AC1000018C1000016C1000058
:1000400014C1000012C1000010C100000EC1000068
:100050000CC100000AC1000008C100000C94660831
:1000600004C10000FDC70000D2C70000FEC00000B0
:10007000FCC00000FAC00000F8C00000F6C000009C
:10008000F4C00000F2C00000F0C00000EEC00000AC
:10009000ECC00000EAC00000E8C00000E6C00000BC
:1000A000E4C00000E2C00000E0C00000DEC00000CC
:1000B000DCC00000DAC00000D8C00000D6C00000DC
:1000C000D4C00000D2C00000D0C00000CEC00000EC
:1000D000CCC00000CAC00000C8C00000C6C00000FC
:1000E000C4C0000000002100240027002A002D00C9
:1000F0003000330001010000040107010A01000083
:100100002200250028002B002E00310034000201BF
:100110000000050108010B0100002000230026005B
:1001200029002C002F00320000010000030106010D
:10013000090105050505070508080808020202026D
:100140000A0A080804040404010101010101010173
:100150000303030303030303040707070C0C0C0C3E
:100160000C0C0C0C02020202060606060606060627
:100170000B0B0B0B0B0B0B0B0102102020080810B4
:100180002040102040800201020108040201010207
:1001900004081020408080402010080402018004E0
:1001A000020180402010080402010804020101023B
:1001B0000408102040800102040810204080000044
:1001C0000A0B02090C0D0E080703040100000000D1
:1001D000000000000000000000000000000000001F
:1001E00000000000000000000000121110000000DC
:1001F00000000000000000000000000000000000FF
:1002000000000000B0085B0F11241FBECFEFD1E249
:10021000DEBFCDBF00E00CBF24E0A8E2B3E001C028
:100220001D92A838B207E1F713E0A0E0B2E0E0EADF
:10023000F7E200E00BBF02C007900D92A832B107B1
:10024000D9F711E0C3E0D1E000E006C02197010931
:10025000802FFE010E949D11C230D10780E0080767
:10026000A9F70E94A7090C94BF13CACE96E0899FF4
:10027000D0011124AA51BC4F90967C936E935F9746
:1002800091E091969C939197E0915304F0915404DE
:1002900090915204992339F0309751F0811108C0A0
:1002A000809102041994309719F05C968C91FACFE2
:1002B0000895CF92DF92EF92FF920F931F9396E0F3
:1002C000899FF0011124EA51FC4F11A2278D30A122
:1002D0002130310549F178F02230310509F44FC061
:1002E0002330310509F450C01F910F91FF90EF901A
:1002F000DF90CF9008956623B9F361E070E0B6DF38
:100300002FB7F8948091450390914603A09147033D
:10031000B09148032FBF80933E0490933F04A09375
:100320004004B0934104E0CF9FB7F894C0904503D8
:10033000D0904603E0904703F09048039FBF0091A0
:100340003E0410913F042091400430914104C01AB2
:10035000D10AE20AF30A009150041091510430E0EE
:1003600020E00C151D052E053F0548F462E070E005
:100370001F910F91FF90EF90DF90CF9077CF611199
:10038000B3CF63E070E0F4CF70E060E0F1CFAF9204
:10039000BF92CF92DF92EF92FF920F931F93CF9372
:1003A000DF936C017B018B01040F151FEB015E01D4
:1003B000AE18BF08C017D10759F06991D601ED9169
:1003C000FC910190F081E02DC6011995892B79F7F8
:1003D000C501DF91CF911F910F91FF90EF90DF90BA
:1003E000CF90BF90AF900895FC01538D448D252F81
:1003F00030E0842F90E0821B930B541710F0CF96BF
:10040000089501970895FC01918D828D981761F0F0
:10041000A28DAE0FBF2FB11D5D968C91928D9F5F07
:100420009F73928F90E008958FEF9FEF0895FC01E6
:10043000918D828D981731F0828DE80FF11D858D99
:1004400090E008958FEF9FEF0895FC01918D228D2C
:10045000892F90E0805C9F4F821B91098F739927B1
:10046000089589E493E0F1DF21E0892B09F420E08D
:10047000822F0895FC01A48DA80FB92FB11DA35A96
:10048000BF4F2C91848D90E001968F739927848FB4
:10049000A689B7892C93A089B1898C9183708064D7
:1004A0008C93938D848D981306C00288F389E02D78
:1004B00080818F7D80830895EF92FF920F931F9329
:1004C000CF93DF93EC0181E0888F9B8D8C8D981307
:1004D0001AC0E889F989808185FF15C09FB7F89413
:1004E000EE89FF896083E889F9898081837080645F
:1004F00080839FBF81E090E0DF91CF911F910F91AA
:10050000FF90EF900895F62E0B8D10E00F5F1F4FB8
:100510000F731127E02E8C8D8E110BC00FB607FCC8
:10052000FACFE889F989808185FFF5CFCE01A2DF76
:10053000F2CFEB8DEC0FFD2FF11DE35AFF4FF08250
:100540009FB7F8940B8FEA89FB8980818062D0CFB6
:10055000CF93DF93EC01888D8823B1F0AA89BB8902
:10056000E889F9898C9185FD03C0808186FD0CC0E6
:100570000FB607FCF7CF8C9185FFF2CF808185FF06
:10058000EDCFCE0177DFEACFDF91CF91089580E004
:1005900090E0892B21F065DF81110E94000080E04E
:1005A00090E0892B49F080E090E0892B29F00E94AF
:1005B000000081110E94000080E090E0892B49F04A
:1005C00080E090E0892B29F00E94000081110E94B8
:1005D000000080E090E0892B49F080E090E0892BDA
:1005E00029F00E94000081110C94000008958150B0
:1005F000823108F05AC0E82FF0E08827ED5FFC4F09
:100600008F4F0C949D112303270315031B031F0316
:1006100055032A03300334033A033E0342034803DD
:100620004C035503500356035A03809180008F7783
:10063000809380000895809180008F7DF9CF809114
:100640008000877FF5CF84B58F7784BD089584B50A
:100650008F7DFBCF8091B0008F778093B00008959D
:100660008091B0008F7DF9CF809190008F7780933B
:1006700090000895809190008F7DF9CF8091900037
:10068000877FF5CF8091A0008F778093A000089599
:100690008091A0008F7DF9CF8091A000877FF5CF5A
:1006A000809120018F77809320010895809120010F
:1006B0008F7DF9CF80912001877FF5CFCF93DF9396
:1006C000282F30E0F901E254FE4F8491F901E858F7
:1006D000FE4FD491F901EE5CFE4FC491CC2399F00A
:1006E000811185DFEC2FF0E0EE0FFF1FE85EFE4F7B
:1006F000A591B491EC91ED2381E090E009F480E0C4
:10070000DF91CF91089580E090E0FACF862FD6CF89
:100710001F93CF93DF93282F30E0F901E254FE4F6F
:100720008491F901E858FE4FD491F901EE5CFE4F37
:10073000C491CC23A1F0162F811159DFEC2FF0E0EA
:10074000EE0FFF1FE250FF4FA591B4918FB7F894C1
:10075000EC91111108C0D095DE23DC938FBFDF919F
:10076000CF911F910895DE2BF8CF60E08091570460
:10077000CFDF8BE090E00197F1F70895862F642F8B
:10078000C7CFCF93DF9390E0FC01E858FE4F249150
:100790008E5C9E4FFC0184918823C9F090E0880F05
:1007A000991FFC01EC51FF4FA591B491FC01E2505F
:1007B000FF4FC591D49161110DC09FB7F8948C91F2
:1007C000209582238C938881282328839FBFDF91E3
:1007D000CF910895623051F49FB7F8943C91822FE5
:1007E000809583238C93E8812E2BEFCF8FB7F894DD
:1007F000EC912E2B2C938FBFEACFCF93DF93C5E5DF
:10080000D4E060E08A8184DF61E08A81BADF60E061
:1008100088817EDF61E08881B4DF61E08981B1DFBA
:1008200061E08A8175DF8BE090E00197F1F7DF915D
:10083000CF910895862F642FA4CF90917B00977F4E
:1008400090937B00806480937C0080917A00806428
:1008500080937A0080917A0086FDFCCF80917800A9
:100860009091790008953FB7F89480912903909171
:100870002A03A0912B03B0912C0326B5A89B05C099
:100880002F3F19F00196A11DB11D3FBFBA2FA92F0F
:10089000982F8827BC01CD01620F711D811D911D0C
:1008A00042E0660F771F881F991F4A95D1F7089578
:1008B0008F929F92AF92BF92CF92DF92EF92FF9270
:1008C0004B015C01D0DF6B017C01CDDF6C197D0930
:1008D0008E099F09683E734081059105B0F321E0C0
:1008E000821A9108A108B10888EEC80E83E0D81ECC
:1008F000E11CF11C81149104A104B10431F7FF90B3
:10090000EF90DF90CF90BF90AF909F908F90089521
:10091000089590E080E00895FF920F931F93CF9386
:10092000DF93F62ED0E0C0E0082F10E0B8010C2EC7
:1009300002C0759567950A94E2F76170809156043C
:10094000E7DE61E080915504E3DE60E0FF2081F0A6
:10095000C730D10569F48091560413DF2196C83061
:10096000D10521F7DF91CF911F910F91FF9008954D
:1009700080915504CDDEF2CFCF93DF93EC0160E0A0
:100980008E81C6DE61E08E81C3DE60E08E81C0DED6
:100990008BE891E00197F1F7DF91CF910895CF9225
:1009A000DF92EF92FF920F931F93CF93DF936C012F
:1009B0007C0187E0E80EF11CD0E0C0E0062F10E0DB
:1009C000B8010C2E02C0759567950A94E2F7617024
:1009D000F70181917F019CDE2196C430D10581F71A
:1009E000C601DF91CF911F910F91FF90EF90DF90A3
:1009F000CF90C2CFCF92DF92EF92FF920F931F93CF
:100A0000CF93DF93EC01F62E642F8C8181DE8D81F4
:100A10008F3F11F060E07CDE0F2D10E08F8584FFAA
:100A200023C06E0187E0C80ED11CF12CE12CB80167
:100A30000E2C02C0759567950A94E2F76170F60175
:100A400081916F0165DEFFEFEF1AFF0A88E0E8167B
:100A5000F10469F7CE01DF91CF911F910F91FF90C3
:100A6000EF90DF90CF9088CFB80184E075956795BF
:100A70008A95E1F7CE0193DF6F2DCE01DF91CF9103
:100A80001F910F91FF90EF90DF90CF9088CF40E0C3
:100A9000682F8CE694E0AECFCF93DF93823029F4B9
:100AA00090917B04986090937B0480937F041092D4
:100AB000800480E48093810480E18093820480E557
:100AC0008093830461E0809170045BDE8091710407
:100AD0008F3F11F061E055DE61E08091720451DEDC
:100AE000CCE6D4E09E012C56344080917B0484FDFA
:100AF0000AC084E090E02196281739073CF461E0B1
:100B00008E813FDEEFCF88E090E0F5CF8BE39DE074
:100B10000197F1F760E080917004FADD60E0809168
:100B20007204F6DD809171048F3F11F060E0F0DD1A
:100B300080917B0484FD31C063E08CE694E02FDF7C
:100B4000CBE4D6E4CE010197F1F763E08CE694E0C4
:100B500026DF2197F1F763E08CE694E020DF83E560
:100B600092E00197F1F762E08CE694E018DF809163
:100B70007B0480628CDF84E080937C048CE087DFE0
:100B800081E085DF8BE39FE10197F1F782E08093BD
:100B90007D0486E0DF91CF917ACF806278DF8BE4AD
:100BA00096E40197F1F780917B04806270DF83E522
:100BB00092E00197F1F780917B04806268DFD7CFE4
:100BC00090917F04691710F06FEF690FE62FF0E046
:100BD000E459FB4F9489890F806859CF41E00ADFBF
:100BE00081E090E00895FB0101900020E9F7319742
:100BF000AF01461B570BDC01ED91FC910280F381A4
:100C0000E02D199466E472E089E493E0ECCF8F92D2
:100C10009F92AF92BF920F931F93CF93DF93CDB765
:100C2000DEB7A1970FB6F894DEBF0FBECDBF19A2F5
:100C3000423008F44AE08E010F5D1F4F842E912C44
:100C4000B12CA12CA50194010E947B11E62FB901C2
:100C5000CA01EA30FCF4E05DD801EE938D01232B4C
:100C6000242B252B79F790E080E0109721F0BD012F
:100C700089E493E0B8DFA1960FB6F894DEBF0FBE0B
:100C8000CDBFDF91CF911F910F91BF90AF909F90FB
:100C90008F900895E95CE0CFCF93DF93BC0189E4A6
:100CA00093E0A1DFEC01AEDF8C0F9D1FDF91CF91B0
:100CB00008954F925F926F927F928F929F92AF9220
:100CC000BF92CF92DF92EF92FF920F931F93CF9339
:100CD0006B017C01742EAC019B010E94771169E4C9
:100CE00072E0811126C046015701E894B7F82FEF52
:100CF0003FEF4FE75FE7C501B4010E947711811113
:100D00000CC02FEF3FEF4FE75FE7C501B4010E9432
:100D1000610F6DE472E0181664F02FEF3FEF4FE7BC
:100D20005FE4C701B6010E9473111816A4F461E5CF
:100D300072E089E493E0CF911F910F91FF90EF90C3
:100D4000DF90CF90BF90AF909F908F907F906F90EB
:100D50005F904F9048CF2FEF3FEF4FE75FECC70119
:100D6000B6010E94610F87FDE2CF20E030E0A901CB
:100D7000C701B6010E94610F10E000E087FF09C0C3
:100D80006DE289E493E098DB8C01F7FAF094F7F8D0
:100D9000F094C0E060E070E080E09FE37C1641F0FA
:100DA00020E030E040E251E40E94DF10CF5FF6CF58
:100DB000A70196010E947B102B013C010E94471164
:100DC0004B015C014AE023DF7C01E00EF11ECC23E5
:100DD000B1F1C501B4010E94650F9B01AC01C301D3
:100DE000B2010E947A104B015C016EE289E493E04B
:100DF00063DBE80EF91EC15010F120E030E040E264
:100E000051E4C501B4010E94C60F2B013C010E94B0
:100E100047114B01B12CA12C4AE0C501B401F7DE0A
:100E2000E80EF91EC501B4010E94650F9B01AC01DB
:100E3000C301B2010E947A104B015C01DCCFC701F3
:100E4000CF911F910F91FF90EF90DF90CF90BF90C7
:100E5000AF909F908F907F906F905F904F9008958C
:100E6000C2CEDC01ED91FC9111976091600470910C
:100E700061043097D9F061157105A9F414968D912C
:100E80009C91892BB1F0808190E008958091640459
:100E900090916504892B69F0FB01808190E0919528
:100EA000819591090895CF010C94AF1361157105D7
:100EB00069F790E080E00895CF93DF93EC0188819B
:100EC0009981009711F00E944112198218821D82A7
:100ED0001C821B821A82DF91CF910895FC018081D0
:100EE0009181009711F00C94411208950F931F9374
:100EF000CF93DF93EC0188819981009759F02A8183
:100F00003B812617370730F081E0DF91CF911F91A9
:100F10000F9108958B016F5F7F4F0E94CA12009757
:100F200059F0998388831B830A832C813D81232B6D
:100F300059F7FC011082E8CF80E0E7CFEF92FF92F3
:100F40000F931F93CF93DF93EC017B018A01BA01CA
:100F5000CDDF81110AC0CE01AFDFCE01DF91CF918D
:100F60001F910F91FF90EF9008951D830C83B7019F
:100F7000888199810E94B813F0CFFB010190002075
:100F8000E9F73197AF01461B570BD8CFEF92FF928D
:100F90000F931F93CF93DF93EC017B01198218828B
:100FA0001B821A821D821C8250E040E068E472E0DD
:100FB000C5DF80916A0490916B040097F1F087017E
:100FC0008E159F0508F48C01E0916604F09167048A
:100FD000E00FF11FF0801082609166047091670449
:100FE000CE016115710589F0C8DF8091660490918A
:100FF0006704080F191FF801F082CE01DF91CF912D
:101000001F910F91FF90EF90089556DFEECF1F9242
:101010000F920FB60F9211240BB60F922F933F939E
:101020004F935F936F937F938F939F93AF93BF93F0
:10103000EF93FF9389E493E01DDAFF91EF91BF9165
:10104000AF919F918F917F916F915F914F913F9160
:101050002F910F900BBE0F900FBE0F901F90189501
:101060001F920F920FB60F9211240BB60F922F936F
:101070008F939F93EF93FF93E0915903F0915A035D
:101080008081E0915F03F091600382FD1DC090813B
:10109000809162038F5F8F7320916303821741F009
:1010A000E0916203F0E0E75BFC4F958F8093620371
:1010B000FF91EF919F918F912F910F900BBE0F9009
:1010C0000FBE0F901F9018958081F2CF1F920F9244
:1010D0000FB60F9211242F933F938F939F93AF934B
:1010E000BF938091450390914603A0914703B0912F
:1010F00048033091280323E0230F2D3758F501963C
:10110000A11DB11D209328038093450390934603AE
:10111000A0934703B09348038091290390912A0339
:10112000A0912B03B0912C030196A11DB11D8093BA
:10113000290390932A03A0932B03B0932C03BF9110
:10114000AF919F918F913F912F910F900FBE0F9074
:101150001F90189526E8230F0296A11DB11DD2CF2E
:1011600010924C0310924B0388EE93E0A0E0B0E0A5
:1011700080934D0390934E03A0934F03B09350037D
:1011800082E292E090934A038093490385EC90E0D9
:10119000909356038093550384EC90E0909358030A
:1011A0008093570380EC90E090935A038093590307
:1011B00081EC90E090935C0380935B0382EC90E081
:1011C00090935E0380935D0386EC90E090936003C0
:1011D00080935F0310926203109263031092640382
:1011E0001092650310926F0410926E048EE392E0E9
:1011F00090936D0480936C048DE0809370048FEF66
:10120000809371048CE0809372048BE0809373046C
:101210008AE08093740483E18093750482E1809373
:101220007604109277041092780410927904109248
:101230007A0410927B0481E02FDC109267041092F4
:101240006604109269041092680410926B04109264
:101250006A0450E040E068E472E086E694E06EDE06
:101260001092610410926004109263041092620460
:10127000109265041092640444E050E065E572E069
:1012800080E694E05BDE86E08093550487E08093FF
:10129000560488E080935704B0DA60E08EE83CDBC7
:1012A00060E080E039DB61DAA8DA60E080E934DB15
:1012B00060E080E031DB59DA1092E8031092EC0331
:1012C0001092EB031092ED0384E392E09093E70316
:1012D0008093E603E2E0F4E0108214821382158228
:1012E000369684E0EE33F807B9F784E092E0909305
:1012F00049048093480480E092E090934B048093EB
:101300004A0484E080934C0480934D0488E092E08A
:1013100090934704809346048AE090E090934F04B2
:1013200080934E0484EF91E0909351048093500495
:1013300010925404109253041092420410924304E9
:101340001092440410924504109252040895CF93D1
:10135000DF9300D000D000D01F92CDB7DEB77894D5
:1013600084B5826084BD84B5816084BD85B58260AA
:1013700085BD85B5816085BD80916E00816080935B
:101380006E001092810080918100826080938100C4
:1013900080918100816080938100809180008160D4
:1013A000809380008091B10084608093B10080912F
:1013B000B00081608093B000809191008260809342
:1013C00091008091910081608093910080919000C4
:1013D0008160809390008091A10082608093A10041
:1013E0008091A10081608093A1008091A000816024
:1013F0008093A000809121018260809321018091DF
:10140000210181608093210180912001816080937E
:10141000200180917A00846080937A0080917A0024
:10142000826080937A0080917A00816080937A0054
:1014300080917A00806880937A001092C10061E008
:101440008BE39FD960E087E19CD961E086E199D97F
:1014500060E081E196D960E08EE093D961E08FE0B1
:1014600090D982E019DBE0915903F0915A0382E0B0
:101470008083E0915503F09156031082E091570369
:10148000F09158038FEC808310926103E0915D032B
:10149000F0915E0386E08083E0915B03F0915C0352
:1014A000808180618083E0915B03F0915C038081A7
:1014B00088608083E0915B03F0915C0380818068A9
:1014C0008083E0915B03F0915C0380818F7D80835A
:1014D0006AE572E08CE694E0C3DC88E692E0DCDB4F
:1014E00084E792E0D9DBEDE2F3E088E0DF011D92D2
:1014F0008A95E9F780912F03807C846180932F0384
:1015000080913003807C856180933003809131032A
:10151000807F866080933103809133038F70806277
:10152000809333036AD960E08EEBF6D975E3E72E3A
:1015300073E0F72E0DE213E060E0F80181918F0176
:10154000EBD9E016F106C1F710D922242394412CDF
:10155000512C320143946AE0362E209252048FB708
:10156000F894409145035091460360914703709170
:1015700048038FBF8091420490914304A09144049A
:10158000B0914504481B590B6A0B7B0B80914E04AC
:1015900090914F04B0E0A0E084179507A607B70725
:1015A00008F021C1F12C80914C04F81658F4E09118
:1015B0004804F0914904EF0DF11D62E08081E1D80B
:1015C000F394F1CF912C80914D04981608F060C0EF
:1015D000E92CF12CE0914A04F0914B04EE0DFF1D33
:1015E00061E08081CED8E0914A04F0914B04EE0D89
:1015F000FF1D60E080818CD8D301C201092C04C09A
:10160000880F991FAA1FBB1F0A94D2F79A87898750
:101610005C01A094B094812C80914C04881618F53C
:10162000C82CD12CE0914804F0914904EC0DFD1D2B
:10163000808144D896012C5F3F4FF901EE0FFF1FC8
:10164000EA51FC4F892B51F480819181A985BA859B
:101650008A2B9B2B918380838394DECF8081918121
:101660008A219B21F7CFE0914A04F0914B04EE0DC3
:10167000FF1D61E080814CD880914A0490914B0419
:10168000E80EF91E60E0F70180817BD893949BCF30
:1016900036EEE32E33E0F32E6701D6015F968D918F
:1016A0009C919097892B59F45C961C925C97EFEF74
:1016B000FFEF5E96FC93EE935D9791961C92F6E099
:1016C000CF0ED11C22E2C21624E0D20631F7B12C93
:1016D00080914C04B81608F053C0A12C8B2C912C8F
:1016E000880C991CC40182519C4F4C0120914D04DF
:1016F000A21608F043C0D4016D917C910A2C02C05F
:10170000769567950A94E2F7B29E900111242A0D0E
:10171000311DE6EEF3E080E0458D568D2417350748
:1017200009F4C7C38F5F36968A30B1F760FF24C0D3
:10173000E6EEF3E090E080E0448D411118C0E091C6
:101740004604F0914704E20FF31F4081B6E0B89FD2
:10175000F001B99FF00D1124EA51FC4F448F368FF0
:10176000258F10A2178E61E00E94590105C00196D5
:1017700036968A30910501F7A394B8CFB394A8CFD9
:1017800080E0F70191A19111892FF6E0EF0EF11C95
:10179000CE14DF04B1F79FB7F89440914503509100
:1017A000460360914703709148039FBF40934204F2
:1017B000509343046093440470934504882399F044
:1017C00080910704882379F08091050490910604A4
:1017D000019749F4B09002042DE2B21609F428C131
:1017E000B11037C202C0109252048091430381119C
:1017F00020C08EE00E945E037C0181E0E114F104D0
:1018000009F480E08093400362E370E080E090E0C0
:101810004FD8EF2809F434C361E08FE00E948803B9
:1018200062E370E080E090E043D860E08FE00E94E7
:101830008803809144038823C9F089E493E00E94DF
:101840000302F82E80933F0362E370E080E090E0B3
:101850002FD851E7F5121FC361E081E10E94880390
:101860008DEC92E019DA89ED92E016DA809143036B
:101870008111DBC089E493E00E940302F82E80937B
:101880003F0362E370E080E090E012D894E7F91241
:10189000CCC081E00E941D044C0190933E038093D4
:1018A0003D0382E00E941D045C0190933C03809301
:1018B0003B0383E00E941D046C0190933A038093E4
:1018C000390387E00E941D047C01909338038093C4
:1018D000370386E00E941D049A87898767EF72E0CC
:1018E00089E493E0BDDAB401990C880B990BEFD22F
:1018F00020E030E040E85AE349D320E030E44CE90E
:1019000055E444D320E030E040E251E458D442E0D2
:10191000D0D960E073E089E493E0A2DA73D963E0A0
:1019200073E089E493E09CDAB501BB0C880B990B5A
:10193000CED220E030E040E85AE328D320E030E483
:101940004CE955E423D320E030E040E251E437D4C1
:1019500042E0AFD960E073E089E493E081DA52D9E4
:101960006CE073E089E493E07BDAB601DD0C880B70
:10197000990BADD220E030E040E85AE307D320E0F5
:1019800030E44CE955E402D320E030E040E251E499
:1019900016D442E08ED960E073E089E493E060DA27
:1019A00031D964E173E089E493E05ADAB701FF0CBE
:1019B000880B990B8CD220E030E040E85AE3E6D265
:1019C00020E030E44CE955E4E1D220E030E040E2B0
:1019D00051E4F5D342E06DD960E073E089E493E02F
:1019E0003FDA10D96DE173E089E493E039DAA98533
:1019F000BA85BD01BB0F880B990B69D220E030E09E
:101A000040E85AE3C3D220E030E44CE955E4BED2CA
:101A100020E030E040E251E4D2D342E04AD960E035
:101A200073E089E493E01CDAEDD80E94C70295CDFB
:101A300060E080E0C5D86DE772E08CE694E010DAF3
:101A400061E080E0BDD86AE872E08CE694E008DAF4
:101A500068EE73E080E090E00E94580481E017D8BF
:101A60008BE39FE10197F1F760E080E0A9D86AE598
:101A700072E08CE694E0F4D9209244031092430380
:101A80000E94FD0361E08FEB0E948C049DE2C92E51
:101A900093E0D92EF12CE12CA12C61E0809155042A
:101AA0000E94880360E0809155040E948803809121
:101AB00056040E945E03B301A2010E2C04C0440F21
:101AC000551F661F771F0A94D2F7892B09F46AC144
:101AD000A42A3FEFE31AF30A58E0E516F104E9F609
:101AE000D601AD926D01A017B107A1F60E94B50312
:101AF00080912D03982F929597708F70939D800DF4
:101B000011248093580480912E03982F92959770FA
:101B10008F70939D800D11248093590480912F0321
:101B2000982F929593708F70939D800D11248093C0
:101B30005A0480913203877080935B048091300354
:101B4000982F929593708F70939D800D11248093A0
:101B50005C048091310384FB992790F98F70939DE9
:101B6000800D112480935D0480913303282F2295EA
:101B70002F708F7090E0239D800D911D1124805354
:101B8000984F90935F0480935E0489E992E084D833
:101B900060915C0470E090E080E04AE038D864EA4C
:101BA00072E089E493E05CD960915D0470E090E0BC
:101BB00080E04AE02CD864EA72E089E493E050D9EE
:101BC000C0905E04D0905F040D2C000CEE08FF085E
:101BD0004AE0C701B601F7FE0DC06DE289E493E06B
:101BE0000E945C0266277727CB016C197D098E095C
:101BF0009F094AE00CD86EEF72E089E493E030D997
:101C000060915A0470E090E080E04AE000D866EA13
:101C100072E089E493E024D96091590470E090E087
:101C200080E04AE00E94070666EA72E089E493E0F9
:101C300017D96091580470E090E080E04AE00E947B
:101C400007060E94020668EE73E080E090E00E94C2
:101C50005804E0904103F090420361E08E2D0E9411
:101C6000E00541E06B2D8CE694E00E94FA041A82B4
:101C700019821C821B821E821D82609166047091F3
:101C800067046115710539F040916A0450916B0445
:101C9000CE01019653D9BF821886CD80DE80BFEF7A
:101CA000CB1ADB0AB601CE01019620D981117DC085
:101CB000CE01019601D969817A816115710509F416
:101CC00081C04D815E8186E694E038D9CE010196CF
:101CD00005D9C70101969093420380934103EDE338
:101CE000BE1283CDB701CE01019650D92D813E8120
:101CF00080916404909165042817390739F4CE0166
:101D00000196AFD8DD24D394892B09F0D12CCE01D4
:101D10000196E4D8DD2009F459C061E080E00E941A
:101D2000E00568EA72E08CE694E09AD860E080E032
:101D30000E94E0056DE772E08CE694E091D8209275
:101D4000430362E370E080E090E00E94580461E0A9
:101D500080E00E94E00566EB72E08CE694E080D8BB
:101D600060E08FE00E94880364E670E080E090E02D
:101D70000E945804F12C61E08F2D0E94E00568E478
:101D800072E08CE694E06CD8F394F0E1FF12F3CFAC
:101D900068E472E086E694E0F0D810924203109274
:101DA000410323CD4095A42294CE29813A818D818F
:101DB0009E81BE01695F7F4F820F931FD9D4DE825F
:101DC000CD8279CF86E694E077D880CFB701CE0177
:101DD0000196DCD82D813E81809164049091650448
:101DE0002817390741F4CE0101963BD8DD24D3945E
:101DF000892B09F0D12CCE01019670D8D110F5CCE9
:101E000061E080E00E94E0056EEB72E08CE694E019
:101E100027D868EE73E080E090E00E94580480913B
:101E200035039091360301969093360380933503E2
:101E30000397B1F488EEE82E83E0F82E61E086E1A6
:101E40000E94880364E670E080E090E00E945804FD
:101E500060E086E10E94880321E0E21AF10871F750
:101E6000F12C61E08F2D0E94E0056EEF72E08CE6B0
:101E700094E00E943007F39436E1F312F2CF88CF5A
:101E800060E08FE00E94880362E370E080E090E011
:101E90000E945804CECC87E7F812E8CC60E081E1DC
:101EA0000E9488038DEC92E00E944C0687EE92E03F
:101EB000DCCC617059CC80E694E010D886E694E0E2
:101EC0000DC840D008F481E00895E89409C097FB5C
:101ED0003EF490958095709561957F4F8F4F9F4F01
:101EE0009923A9F0F92F96E9BB279395F695879545
:101EF00077956795B795F111F8CFFAF4BB0F11F408
:101F000060FF1BC06F5F7F4F8F4F9F4F16C08823AE
:101F100011F096E911C0772321F09EE8872F762FE4
:101F200005C0662371F096E8862F70E060E02AF025
:101F30009A95660F771F881FDAF7880F9695879511
:101F400097F90895990F0008550FAA0BE0E8FEEFE6
:101F500016161706E807F907C0F012161306E4076D
:101F6000F50798F0621B730B840B950B39F40A2666
:101F700061F0232B242B252B21F408950A2609F444
:101F8000A140A6958FEF811D811D08950BD078C0CB
:101F900069D028F06ED018F0952309F05AC05FC0C0
:101FA0001124A2C07ED0A0F3959FD1F3950F50E0ED
:101FB000551F629FF001729FBB27F00DB11D639FFB
:101FC000AA27F00DB11DAA1F649F6627B00DA11DA1
:101FD000661F829F2227B00DA11D621F739FB00D47
:101FE000A11D621F839FA00D611D221F749F3327B7
:101FF000A00D611D231F849F600D211D822F762F50
:102000006A2F11249F5750408AF0E1F088234AF04C
:10201000EE0FFF1FBB1F661F771F881F9150504098
:10202000A9F79E3F510570F014C05EC05F3FECF30E
:10203000983EDCF3869577956795B795F795E79584
:102040009F5FC1F7FE2B880F911D9695879597F995
:10205000089597F99F6780E870E060E008959FEF2A
:1020600080EC089500240A9416161706180609062F
:10207000089500240A9412161306140605060895FE
:10208000092E0394000C11F4882352F0BB0F40F486
:10209000BF2B11F460FF04C06F5F7F4F8F4F9F4FC6
:1020A000089557FD9058440F551F59F05F3F71F048
:1020B0004795880F97FB991F61F09F3F79F08795AF
:1020C0000895121613061406551FF2CF4695F1DF38
:1020D00008C0161617061806991FF1CF86957105C8
:1020E000610508940895E894BB2766277727CB01FC
:1020F00097F908955058BB27AA270ED0C1CFB2DF59
:1021000030F0B7DF20F031F49F3F11F41EF4A7CF79
:102110000EF4E095E7FB9DCFE92FC3DF80F3BA17FC
:10212000620773078407950718F071F49EF5DBCFFB
:102130000EF4E0950B2EBA2FA02D0B01B9019001E2
:102140000C01CA01A0011124FF27591B99F0593F26
:1021500050F4503E68F11A16F040A22F232F342F6E
:102160004427585FF3CF469537952795A795F040BC
:102170005395C9F77EF41F16BA0B620B730B840BD1
:10218000BAF09150A1F0FF0FBB1F661F771F881F89
:10219000C2F70EC0BA0F621F731F841F48F48795E1
:1021A00077956795B795F7959E3F08F0B3CF9395D0
:1021B000880F08F09927EE0F9795879508950CD012
:1021C0005FCF57DF40F04EDF30F021F45F3F19F072
:1021D00040CF511189CF43CF64DF98F39923C9F3DE
:1021E0005523B1F3951B550BBB27AA27621773071D
:1021F000840738F09F5F5F4F220F331F441FAA1FD1
:10220000A9F333D00E2E3AF0E0E830D09150504090
:10221000E695001CCAF729D0FE2F27D0660F771F3E
:10222000881FBB1F261737074807AB07B0E809F020
:10223000BB0B802DBF01FF2793585F4F2AF09E3FB5
:10224000510568F006CF50CF5F3FECF3983EDCF3CA
:10225000869577956795B795F7959F5FC9F7880F2E
:10226000911D9695879597F90895E1E0660F771F80
:10227000881FBB1F621773078407BA0720F0621B11
:10228000730B840BBA0BEE1F88F7E095089511DFEE
:1022900088F09F5790F0B92F9927B751A0F0D1F04F
:1022A000660F771F881F991F1AF0BA95C9F712C0D9
:1022B000B13081F018DFB1E0089515CF672F782F86
:1022C0008827B85F39F0B93FCCF386957795679545
:1022D000B395D9F73EF490958095709561957F4FB1
:1022E0008F4F9F4F08952EDE08F48FEF08952ADE5A
:1022F000880B990B0895A1E21A2EAA1BBB1BFD01A6
:102300000DC0AA1FBB1FEE1FFF1FA217B307E407D4
:10231000F50720F0A21BB30BE40BF50B661F771F2C
:10232000881F991F1A9469F760957095809590950C
:102330009B01AC01BD01CF010895EE0FFF1F881F67
:102340008BBF0790F691E02D19940F931F93CF93B5
:10235000DF938230910510F482E090E0E0918604F2
:10236000F091870430E020E0B0E0A0E0309799F4ED
:102370002115310509F44AC0281B390B24303105D9
:10238000D8F58A819B816115710589F1FB019383E1
:102390008283FE0111C0408151810281138148175F
:1023A0005907E0F04817590799F4109761F0129611
:1023B0000C93129713961C933296CF01DF91CF9115
:1023C0001F910F9108950093860410938704F4CF12
:1023D0002115310551F04217530738F0A901DB01EF
:1023E0009A01BD01DF01F801C1CFEF01F9CF909350
:1023F000870480938604CDCFFE01E20FF31F819303
:1024000091932250310939832883D7CF20918404B6
:1024100030918504232B41F420911A0230911B0244
:10242000309385042093840420911802309119027E
:102430002115310541F42DB73EB740911C02509152
:102440001D02241B350BE0918404F0918504E217F2
:10245000F307A0F42E1B3F0B2817390778F0AC01C7
:102460004E5F5F4F2417350748F04E0F5F1F5093A4
:10247000850440938404819391939FCFF0E0E0E042
:102480009CCFCF93DF930097E9F0FC013297138242
:102490001282A0918604B0918704ED0130E020E023
:1024A0001097A1F420813181820F931F2091840421
:1024B000309185042817390709F061C0F09385042D
:1024C000E0938404DF91CF910895EA01CE17DF07EE
:1024D000E8F54A815B819E0141155105B1F7E9019B
:1024E000FB83EA8349915991C40FD51FEC17FD076F
:1024F00061F4808191810296840F951FE90199838F
:102500008883828193819B838A83F0E0E0E0129646
:102510008D919C9113970097B9F52D913C9111974E
:10252000CD010296820F931F20918404309185047F
:102530002817390739F6309751F510928704109211
:102540008604B0938504A0938404BCCFD383C28354
:1025500040815181840F951FC817D90761F44E5FE0
:102560005F4F88819981480F591F518340838A8129
:102570009B81938382832115310509F0B0CFF093BD
:102580008704E09386049ECFFD01DC01C0CF138257
:102590001282D7CF4F925F926F927F928F929F92CB
:1025A000AF92BF92CF92DF92EF92FF920F931F9361
:1025B000CF93DF938C01009791F4CB01DF91CF9102
:1025C0001F910F91FF90EF90DF90CF90BF90AF9051
:1025D0009F908F907F906F905F904F90B6CEFC0150
:1025E000E60FF71F9C0122503109E217F30708F4A8
:1025F000AAC0D901CD91DC911197C617D70718F160
:10260000C530D10570F0CE0104978617970748F0C2
:10261000C61BD70B2297C193D1936D937C93CF01A7
:1026200030DFC801DF91CF911F910F91FF90EF90A4
:10263000DF90CF90BF90AF909F908F907F906F90E2
:102640005F904F9008955B01AC1ABD0A4C018C0E4F
:102650009D1EA0918604B0918704512C412CF12C31
:10266000E12C109731F580918404909185048815B0
:10267000990509F05CC04616570608F058C08091CD
:10268000180290911902009741F48DB79EB74091BE
:102690001C0250911D02841B950BE817F90708F0E6
:1026A00052C0F0938504E0938404F9017183608340
:1026B000B8CF8D919C91119712966C9012971396AA
:1026C0007C901397A815B90559F56C0142E0C40E2A
:1026D000D11CCA14DB0420F1AC014A195B09DA01F0
:1026E0001296159780F06282738251834083D901DC
:1026F0006D937C93E114F10471F0D7011396FC9370
:10270000EE9312978ECF22968C0F9D1FF901918325
:102710008083F301EFCFF0938704E093860481CFA9
:102720004816590608F42C017D01D3019ACFCB013C
:102730000CDE7C01009739F0AE01B80107D0C8016A
:10274000A0DE87016ECF10E000E06BCFFB01DC0163
:1027500002C001900D9241505040D8F70895FB01FE
:10276000DC018D91019080190110D9F3990B089526
:10277000FB01DC0101900D920020E1F7089511E0CA
:10278000C3E0D1E000E005C0802FFE01D6DD219638
:10279000011DC430D10780E00807B1F7F894FFCFDE
:1027A00006070809020304053738392F3435362A5D
:1027B0003132332D63303D2B00008804800000004F
:1027C00000005C02C701F401A802250203021702FF
:1027D000000000001A04BE03860300000000EE059E
:1027E000C701890488040D0A006E616E00696E6677
:1027F000006F7666003132333400454E5445522026
:10280000544845204B455900434F4E54524F4C4C71
:10281000494E47005354415254494E470047415492
:1028200045204953204F50454E0057494E444F577D
:1028300053204C4F434B45440050454F504C45208E
:102840004F5554002F003A005452554520504153E3
:1028500053574F52440057454C434F4D4500575234
:102860004F4E472050415353574F524400456C65DB
:102870006B7472696B2C737500446F67616C676170
:102880007A2C6163696B00446F67616C67617A2CB5
:102890006B6170616C69004F44412031203D200024
:1028A0002A43004F44412032203D20004F44413311
:1028B000203D200053414C4F4E203D20004D5554AB
:0828C00046414B203D200000C1
:00000001FF
